:100000000C9481000C94AB000C949E010C94A900FC
:100010000C94A9000C94A9000C94A9000C94A900BC
:100020000C94A9000C94A9000C94A9000C94A900AC
:100030000C94A9000C941C010C94A9000C94A90028
:100040000C94A9000C94A9000C94A9000C94A9008C
:100050000C94A9000C94A9000C94A9000C94A9007C
:100060000C94A9000C94A9000C94A9000C94A9006C
:100070000C94A9000C94A9000C94A90007634236C3
:10008000B79BD8A71A39685618AEBAAB558C1D3C29
:10009000B7CC5763BD6DEDFD753EF6177231BF00ED
:1000A0000000803F08000000BE922449123EABAA27
:1000B000AA2ABECDCCCC4C3E00000080BEABAAAA82
:1000C000AA3E00000000BF000000803F00000000CA
:1000D00000084178D3BB4387D1133D190E3CC3BD03
:1000E0004282AD2B3E68EC8276BED98FE1A93E4CB0
:1000F00080EFFFBE01C4FF7F3F0000000000DC1363
:10010000E41311241FBECFEFD8E0DEBFCDBF13E054
:10011000A0E0B1E0EEEFF7E302C005900D92AA3C3B
:10012000B107D9F724E0AAECB3E001C01D92AC32CC
:10013000B207E1F710E0C0E8D0E004C02197FE016B
:100140000E94B215CF37D107C9F70E947C110C94D9
:10015000F21B0C9400001F920F920FB60F92112405
:10016000CF92DF92EF92FF922F933F934F935F9343
:100170006F937F938F939F93AF93BF93EF93FF936F
:10018000CF93DF9300D000D0CDB7DEB786B590E037
:1001900001969695982F88279795879568EA76E136
:1001A0000E949E15623020F40E94DE02109200012F
:1001B0008091010190910201C090D503D090D603A7
:1001C000E090D703F090D8039C0150E040E02983F1
:1001D0003A834B835C83CA01B9010E94CC14A70106
:1001E000960169837A838B839C8369817A818B8171
:1001F0009C810E945514882319F081E080930001AE
:10020000E09A0F900F900F900F90DF91CF91FF9198
:10021000EF91BF91AF919F918F917F916F915F917E
:100220004F913F912F91FF90EF90DF90CF900F90E3
:100230000FBE0F901F9018951F920F920FB60F923E
:100240001124CF92DF92EF92FF922F933F934F931F
:100250005F936F937F938F939F93AF93BF93EF932E
:10026000FF93CF93DF9300D000D0CDB7DEB72091BE
:10027000D5033091D6034091D7035091D8032983F9
:100280003A834B835C8320E030E040E05FE36981A8
:100290007A818B819C810E94E913462F572FBC01E4
:1002A0004093D5035093D6036093D7037093D8033C
:1002B0008091010190910201C090D503D090D603A6
:1002C000E090D703F090D8039C0150E040E02983F0
:1002D0003A834B835C83CA01B9010E94CC14A70105
:1002E000960169837A838B839C8369817A818B8170
:1002F0009C810E945514811106C00E94DE0210925A
:1003000000011092D9030F900F900F900F90DF9182
:10031000CF91FF91EF91BF91AF919F918F917F917D
:100320006F915F914F913F912F91FF90EF90DF90F0
:10033000CF900F900FBE0F901F9018951F920F92A5
:100340000FB60F9211242F933F934F935F936F93A8
:100350007F938F939F93AF93BF93EF93FF938FE11F
:100360009EE40197F1F700C000000E94DE020E94A7
:100370001E041092000181E08093D4031092D903EF
:10038000E19AFF91EF91BF91AF919F918F917F91F2
:100390006F915F914F913F912F910F900FBE0F90F2
:1003A0001F90189510927C0086E880937A0008953B
:1003B00010927A00089580917C00807E80937C006A
:1003C00080917C006770682B60937C0080917A003C
:1003D000806480937A0080917A0084FFFCCF8091C2
:1003E0007A00806180937A00209178009091790062
:1003F000892F90E0982F8827820F911D0895CF9222
:10040000DF92EF92FF920F931F93CF93DF9300D071
:10041000CDB7DEB7F82E2DB73EB73A83298370E00B
:10042000082F10E0601B710B8DB79EB7861B970BD2
:100430000FB6F8949EBF0FBE8DBF2DB73EB72F5F8E
:100440003F4F6901E02EEF18C8010E94A51B8F3FA6
:1004500039F0F601EE0DF11D80830F5F1F4FF2CFD3
:10046000C60129813A810FB6F8943EBF0FBE2DBF59
:100470000F900F90DF91CF911F910F91FF90EF9010
:10048000DF90CF900895EF92FF920F931F93CF9339
:10049000DF93042F10E0EC017C01E60EF11CCE1579
:1004A000DF0539F06991C8010E94AD1B0F5F1F4F36
:1004B000F6CFDF91CF911F910F91FF90EF900895AC
:1004C000813049F0823059F0811104C08091C2001E
:1004D0008093C20008958091C2008062F9CF80911C
:1004E000C2008063F5CF813019F0823031F0089579
:1004F0008091C2008093C20008958091C2008860FC
:10050000F9CF8730A1F028F4853041F0863059F0DA
:100510000895883081F0893071F008958091C2008B
:100520008093C20008958091C2008260F9CF8091CB
:10053000C2008460F5CF8091C2008660F1CFCF9376
:10054000DF93D62FC42F1092C5009FEC9093C40068
:100550001092C00098E19093C1000E9460028D2F1C
:100560000E9473028C2FDF91CF910C9481029091A5
:10057000C00095FFFCCF8093C60008950F931F9392
:10058000CF93DF93EC018C01060F111DC017D1072B
:1005900021F089910E94B702F9CFDF91CF911F918D
:1005A0000F9108958091C00087FFFCCF8091C60015
:1005B0000895109285001092840008951092810091
:1005C00008959C01211581E0380789F040F4283016
:1005D000310549F083E02034310531F008952115CB
:1005E000344039F0089582E080938100089584E0DA
:1005F000FBCF85E0F9CF813051F0823071F081116D
:1006000005C0809181008860809381000895809169
:1006100080008160809380000895809180008160D7
:1006200080938000EECF8130E9F08230D9F08111E3
:100630001DC0611104C080918000806F0AC06130CC
:1006400021F480918000806A04C0623029F4809196
:100650008000809380000AC0633041F48091800064
:100660008065F7CF662339F3613059F308959C0113
:100670001092850010928400613069F0623039F088
:1006800061110DC090938900809388000895909324
:1006900089008093880030938B0020938A0008950E
:1006A000CF93DF9300D000D0CDB7DEB7FC018081BF
:1006B000813411F41092E4038081823419F481E0D2
:1006C0008093E4038081833419F482E08093E4030F
:1006D0008081843419F483E08093E4038181811163
:1006E00035C01092E2039081953411F41092E30327
:1006F0009081963419F491E09093E303228134E6DB
:10070000839FC00111244AE0249F800D911D112474
:100710002381820F911D9C01990F440B550B298356
:100720003A834B835C83CA01B9010E94CE14609363
:10073000DE037093DF038093E0039093E1030F9057
:100740000F900F900F90DF91CF910895813059F65F
:100750008093E203C8CFCF93FC0180819FEB980F79
:10076000943030F481E091819230C8F080E017C07D
:1007700085548230D8F7C1E020E030E044E353E410
:100780006091DE037091DF038091E0039091E103BB
:100790000E94E71518160CF0C0E081E08C27CF917D
:1007A00008951F93CF93DF93CDB7DEB7AC970FB605
:1007B000F894DEBF0FBECDBF8CE2E9E3F2E0DE01CC
:1007C000119601900D928A95E1F76CE2CE010196A7
:1007D0000E94BE02609103018AED93E00E944705EA
:1007E0008AED93E00E9450038AED93E00E94AB03F0
:1007F000182F882389F08091DA0385548230B8F469
:100800004091DE035091DF036091E0037091E103BA
:100810008091E3030E94D10A812FAC960FB6F89421
:10082000DEBF0FBECDBFDF91CF911F9108956BED5D
:1008300073E08AED93E00E94ED0FEECF81E08BB97B
:100840002FEF80E792E0215080409040E1F700C018
:1008500000001BB808950C94DB0CCF93DF9300D0FD
:1008600000D0CDB7DEB79B01AC0160E070EC82EA4E
:1008700094E40E945A1420E030E040E85FE369838A
:100880007A838B839C8369817A818B819C810E948E
:10089000E81369837A838B839C8369817A818B8156
:1008A0009C810E94B815CB010F900F900F900F9074
:1008B000DF91CF9108959C0190E080E040E28217A3
:1008C000930741F04BB955E85A95F1F700001BB872
:1008D0000196F5CF0895CF93DF93CDB7DEB7C3541C
:1008E000D1090FB6F894DEBF0FBECDBF83E4E5E6B5
:1008F000F2E0DE01119601900D928A95E1F763E432
:10090000CE0101960E94BE02CD5BDF4F0FB6F89478
:10091000DEBF0FBECDBFDF91CF910895FC01808176
:10092000823058F481818A3068F48281863050F4B4
:1009300081E093819A3030F40895823019F48181F6
:10094000843098F380E0F8CFEF92FF921F93CF931B
:10095000DF937C01EB0164E0CE010E944705CE01EC
:100960000E948E04182F8823E9F0488188E592E0E0
:10097000489F9001499F300D112489819CE3899FF4
:10098000200D311D11248A81EAE08E9F200D311D3A
:1009900011248B81820F932F911DF7019183808306
:1009A0000E945B04812FDF91CF911F91FF90EF9008
:1009B00008959C0190E080E00196F901E80FF91F8D
:1009C00040814111F9CF0895EF92FF920F931F9349
:1009D000CF93DF93EC01FB011F86309701F17C017F
:1009E0008FE0E80EF11C2EE0042F10E0CF01B801DB
:1009F0000E948A15DC01A855BD4F8C91D7018E93BA
:100A00007D012150CF01FB018017910710F02111CA
:100A1000EDCF822F90E001968C0F9D1F03C00E96A4
:100A200020E32E87DF91CF911F910F91FF90EF90E0
:100A300008959C0190E080E08217930741F0EFEC6D
:100A4000F7E03197F1F700C000000196F5CF089567
:100A5000F894882321F0813069F078940895E89A19
:100A60008091690080936900809169008260809321
:100A70006900F3CFE99A80916900809369008091C1
:100A800069008860F4CF82E080936F000895AF9290
:100A9000BF92CF92DF92EF92FF920F931F93CF936B
:100AA000DF93CDB7DEB76A970FB6F894DEBF0FBEFF
:100AB000CDBF8C01F62E80E1EBE1F1E0DE01119675
:100AC00001900D928A95E1F7B62EE12C20E1A22E3D
:100AD000EB1409F450C0A8B8F80180818554823025
:100AE00028F4F2E0FF1202C094E0B92EF8018481EC
:100AF0008554823028F4F6E0FF1202C088E0B82E58
:100B0000D12CC12C8FE19EE40197F1F700C00000C9
:100B1000359B23C0EFE1FEE43197F1F700C0000000
:100B2000359B1BC03599FECFE1E0F0E0EC0FFD1FD7
:100B3000EC0DFD1D8081F801EE0DF11D8083E39425
:100B40008134B0F4682FCE0141960E940E1162E00C
:100B50000E94BE0280E20E94B70288B18F5F88B90E
:100B6000FFEFCF1ADF0A80E1C816D10459F6B0CFE3
:100B70000E94B702EFCF6A960FB6F894DEBF0FBEA1
:100B8000CDBFDF91CF911F910F91FF90EF90DF903C
:100B9000CF90BF90AF900895CF93DF93EC01CB013E
:100BA000BA01188219821A821B824C837D831886AF
:100BB00019860E94B3104C815D8160E081E00E9443
:100BC0006C1080E190E00E94DE179F838E83DF919E
:100BD000CF910895FC01868197810C9474181F931E
:100BE000CF93DF93EC01162F2C813D81462F6B8133
:100BF00081E00E9474101A83DF91CF911F910895B4
:100C00001F93CF93DF93EC01162F2C813D814A81F6
:100C100081E00E9474101B83DF91CF911F91089592
:100C2000FC01862F603248F46183648175818031D4
:100C300010F40C94A610805DFCCF0895CF93DF9341
:100C4000EC018C819D810E94601018826981CE0127
:100C5000DF91CF910C9410066F927F928F929F92AA
:100C6000AF92BF92CF92DF92EF92FF920F931F93BA
:100C7000CF93DF93EC018B01F42EE22ECB010E9487
:100C8000D9046C017A808B8060E0CE010E94EF0570
:100C900060E0CE010E940006EE2019F0CE010E9415
:100CA0001E062FE12F1508F45CC08F2D90E0A601E1
:100CB000552720E230E0281B390BC216130611F02D
:100CC0000CF04FC09C2C6C817D81EFE0EF1548F15A
:100CD000840F951FEC2C40971CF080E1E82EEF1854
:100CE0008F2D0E94A610602E58016C817D818A2D67
:100CF00086198E1530F4F50181915F010E94AD10C7
:100D0000F4CF80E40E94A6100E0D111DE914D8F452
:100D10006C817D81F80181918F010E94AD10E39477
:100D2000F5CF80E38F0D0E94A610E02E58018A2D8A
:100D30008E19891540F46C817D81F50181915F01E7
:100D40000E94AD10F4CF6981CE010E941006672D7C
:100D5000CE010E94EF05682DCE010E940006FC0C1A
:100D6000F882DF91CF911F910F91FF90EF90DF906C
:100D7000CF90BF90AF909F908F907F906F9008958D
:100D80006115710511F00C942C0608950F931F93B3
:100D9000CF93DF9300D0CDB7DEB78C011A82698381
:100DA00020E0FC014081BE016F5F7F4F0E942C0656
:100DB000C8010F900F90DF91CF911F910F9108956F
:100DC000EF92FF920F931F93CF93DF938C01862FA7
:100DD000EA016830B8F42097A9F0F80164817581C0
:100DE000880F880F880F0E949E107E01F8E0EF0E9A
:100DF000F11CF8016481758189910E94AD10CE15B6
:100E0000DF05B9F7DF91CF911F910F91FF90EF9020
:100E10000895CF93DF93EC01CB01892B29F020E0DB
:100E20004881CE010E94C006CE01DF91CF91089586
:100E3000CF93DF93EC017F936F9389EB92E09F93C5
:100E40008F938F818F938E818F930E9406196E816D
:100E50007F81CE010E9409070F900F900F900F9095
:100E60000F900F90CE01DF91CF910895CF93DF9334
:100E7000EC017F936F938CEB92E09F938F938F8124
:100E80008F938E818F930E9406196E817F81CE0190
:100E90000E9409070F900F900F900F900F900F90E6
:100EA000CE01DF91CF910895CF93DF93EC011F9294
:100EB0006F938FEB92E09F938F938F818F938E81AF
:100EC0008F930E9406196E817F81CE010E940907CF
:100ED0000F900F900F900F900F900F90CE01DF9119
:100EE000CF9108950F931F93CF93DF93EC018B0164
:100EF0006115710561F0288581E028274985CE01BB
:100F00000E94C0068885882311F018861986C801BA
:100F1000DF91CF911F910F910895FC01603218F479
:100F2000618781E08087CF0108950F931F93CF934E
:100F3000DF93EC018881082F681708F4062F801BC7
:100F4000888310E0101731F060E2CE010E94C606DF
:100F50001F5FF8CF8881811B8883DF91CF911F911C
:100F60000F91089516BC94B5926094BD95B59560A7
:100F700095BD87BD089580E488B98AE18A95F1F727
:100F800000C018B80895FC011182108212821382E9
:100F90000895EF92FF920F931F93CF93DF93EC018D
:100FA000FB01198218821B8284818A8385548230D6
:100FB000D0F42DEF240F81E0433008F084E044505A
:100FC000480F84E63AE0241781F0DF01A20FB11D3B
:100FD0005C919B81859F900D11249B83632F0E94C0
:100FE0007E152F5FF0CF85818B838F010B5F1F4FA5
:100FF00030E020E088EE93E04AE0E42EF12C6191AD
:10100000689FA001699F500D1124240F351FB7015F
:101010000E949E15CB010E171F0789F7398328837D
:10102000DF91CF911F910F91FF90EF900895FC01F8
:10103000DB018D919C9111979183808313968C9104
:101040001397838312968C9182830895FC01DB01B0
:101050008D919C9111979183808312968C91129718
:10106000828313968C918383CF010895089502960D
:10107000089503960895DC01FB012D913C91119791
:1010800013968C91139712969C91129740815181DF
:1010900011965C934E93428112964C931297438122
:1010A00013964C9331832083928383830895AF9268
:1010B000BF92CF92DF92EF92FF920F931F93CF9345
:1010C000DF93EC01B12CC62ED12C760181E0E81A19
:1010D000F1088B2D90E08E159F0544F5A12C20E0A2
:1010E0008601081B190B01501109EA2DF0E0E017E9
:1010F000F107C4F4EE0FFF1FEE0FFF1FCE018E0F9E
:101100009F1F3496EC0FFD1FDC016D917C91408197
:1011100051814617570720F4BF010E943B0821E088
:10112000A394E3CF222311F0B394D3CFDF91CF91D7
:101130001F910F91FF90EF90DF90CF90BF90AF90F5
:101140000895EF92FF920F931F93CF93DF93CDB744
:10115000DEB7E7970FB6F894DEBF0FBECDBF8C01A8
:101160007B0185E3E2ECF2E0DE01119601900D9245
:101170008A95E1F765E3CE0101960E94BE0262E026
:10118000CE01C6960E94470562E0CE01C6960E9437
:101190003211882309F449C0F7019081981708F4A7
:1011A00044C08150F7012081E82FF0E030E0A90130
:1011B00041505109E417F507CCF43196EE0FFF1FAB
:1011C000EE0FFF1FD801AE0FBF1F3497E00FF11FC6
:1011D0002D913C9111973183208312969C91129707
:1011E000928313969C9193838F5FDCCFF901E1503A
:1011F000F04CEE0FFF1FEE0FFF1FE00FF11F1182EB
:10120000108212821382F70180818150808381E0F5
:10121000E7960FB6F894DEBF0FBECDBFDF91CF913A
:101220001F910F91FF90EF90089580E0F1CFFC01A6
:101230009181911109C08081848380E383839AE343
:1012400092838183808308958281811107C0948372
:10125000808183838AE3828380E3F3CF238121111A
:1012600008C0848393838AE382838081818380E3BF
:10127000E9CF248383838AE3828308952F923F9268
:101280004F925F926F927F928F929F92AF92BF9296
:10129000CF92DF92EF92FF920F931F93CF93DF9342
:1012A000CDB7DEB7CA55D1090FB6F894DEBF0FBE71
:1012B000CDBF7C016B966FAF6B97611128C085E243
:1012C000EAEFF2E0DE01119601900D928A95E1F7C6
:1012D00065E2CE0101960E94BE02C65ADF4F0FB6EC
:1012E000F894DEBF0FBECDBFDF91CF911F910F915C
:1012F000FF90EF90DF90CF90BF90AF909F908F9036
:101300007F906F905F904F903F902F90089580E274
:10131000EFE1F3E0DE01119601900D928A95E1F77D
:1013200060E2CE0101960E94BE028701312CCE01FF
:10133000CF967C0180903F0390904003A0904103A2
:10134000B090420387EFC82E82E0D82E409043032E
:10135000509044036090450370904603832D33946E
:101360008A3038F460E0C7010E940E1161E00E94EB
:10137000BE02C7010E942711282E632DC7010E94BB
:101380000E11622D0E94BE026A968CAE9DAEAEAE6C
:10139000BFAE6A9764E0CE018A5A9F4F0E94BE0298
:1013A000F80181818F9380818F93DF92CF92FF929A
:1013B000EF920E940619C7010E94170965E0C70154
:1013C0000E94BE02F801828185540F900F900F9009
:1013D0000F900F900F90823008F03EC089E1E7E453
:1013E000F3E0DE01969601900D928A95E1F769E1AE
:1013F000CE0186960E94BE02F80182810E94B70249
:1014000066964CAE5DAE6EAE7FAE669764E0CE0182
:101410008E5A9F4F0E94BE02F8016381C7010E944D
:101420000E1163E00E94BE0289E0E0E6F3E0DE0117
:10143000A75BBF4F01900D928A95E1F769E0CE015D
:10144000875B9F4F0E94BE020C5F1F4F6B96FFADE4
:101450006B97F31183CF41CF83818823B1F081E172
:10146000E9E6F3E0DE01969601900D928A95E1F7A8
:1014700061E1CE0186960E94BE02F80182810E943F
:10148000B7028AE00E94B702DFCF81E1EAE7F3E02A
:10149000E9CFCF93DF93EB010E948E04882389F07C
:1014A0008A81813430F0853430F481E09B81923040
:1014B00040F080E006C08734E0F781E09B81953BF7
:1014C000C0F7DF91CF910895CF92DF92FF920F93F3
:1014D0001F93CF93DF93CDB7DEB7E4970FB6F894A1
:1014E000DEBF0FBECDBF6C018B0184E2EBE8F3E001
:1014F000DE01119601900D928A95E1F764E2CE012A
:1015000001960E94BE021EA21DA2FE01B79686E0B1
:10151000DF011D928A95E9F766E0CE0185960E946B
:10152000470548E0BE016B5D7F4FCE01C1960E942A
:10153000C90789A99AA99EA78DA78CA988AB8BA951
:101540008FA7BE01635D7F4FCE0185960E94490A39
:10155000F82E8823B9F0D801EC91B4E0EB9FF001AC
:101560001124EC0DFD1D89A99AA9918380838BA973
:1015700082838CA98383F80160816F5F6083C601D9
:101580000E9457088F2DE4960FB6F894DEBF0FBE69
:10159000CDBFDF91CF911F910F91FF90DF90CF9042
:1015A0000895FF920F931F93CF93DF9300D000D045
:1015B00000D0CDB7DEB7082FF42E152F6E837D83B4
:1015C0008091B00083608093B0008091B1008093DF
:1015D000B1008091B10086608093B10080911001CC
:1015E00090911101A0911201B091130189839A8306
:1015F000AB83BC83242F352F4E815D81BC01CD018F
:101600000E94551429813A814B815C81F9821A83A9
:1016100081117AC09E819B83AD81AC8369817A817F
:101620008B819C810E945A1420E030E040E85FE307
:1016300069837A838B839C8369817A818B819C8186
:101640000E94E91320910C0130910D0140910E018F
:1016500050910F0169837A838B839C8369817A819E
:101660008B819C810E94E91320910801309109012E
:1016700040910A0150910B0169837A838B839C838B
:1016800069817A818B819C810E945A1420E030E02C
:1016900048EC52E469837A838B839C8369817A81E5
:1016A0008B819C810E94EC152091040130910501F1
:1016B000409106015091070169837A838B839C8353
:1016C00069817A818B819C810E94EC1520E030E059
:1016D00048EC52E469837A838B839C8369817A81A5
:1016E0008B819C810E945A140023E9F0013069F13A
:1016F00026960FB6F894DEBF0FBECDBFDF91CF9117
:101700001F910F91FF900895BE81BB838D818C83C3
:1017100069817A818B819C810E945A1420E030E09B
:1017200040E85FE397CF2091B00020682093B0009D
:1017300069837A838B839C8369817A818B819C8185
:101740000E94B8156093B300D3CF2091B0002062FF
:101750002093B00069837A838B839C8369817A812B
:101760008B819C810E94B8156093B400C1CF0F9308
:101770001F93CF93DF9300D000D000D0CDB7DEB75A
:101780008B018E839D8320E030E0A90169831A8359
:101790008E818B839D819C8369817A818B819C81E1
:1017A0000E94E7151816BCF48FEC97E00197F1F74B
:1017B00000C0000020E030E040E85FE309831A83C6
:1017C0009E819B838D818C8369817A818B819C81B1
:1017D0000E94E813D5CF26960FB6F894DEBF0FBE51
:1017E000CDBFDF91CF911F910F910895CF93DF93DC
:1017F00000D000D0CDB7DEB79B01AC0160E070E057
:1018000080E89FE30E945A1420E030E04AE754E465
:1018100069837A838B839C8369817A818B819C81A4
:101820000E94EC1569837A838B839C8369817A811A
:101830008B819C810F900F900F900F90DF91CF9133
:1018400008953F924F925F926F927F928F929F92F4
:10185000AF92BF92CF92DF92EF92FF920F931F93BE
:10186000CF93DF9300D000D000D0CDB7DEB73901E1
:101870004A019B01AC0160E070E080E89FE30E94B8
:101880005A1420E030E04AE754E469837A838B837A
:101890009C8369817A818B819C810E94EC155B011C
:1018A0006C019B01AC01E982FA820B831C83698184
:1018B0007A818B819C810E945A14F62EE72E582E35
:1018C000492E00E010E01E821D82332433942F2D18
:1018D0003E2D452D542D09831A838E818B838D8156
:1018E0008C8369817A818B819C810E94551487FF4A
:1018F0004AC015B89301A40160E070E080E89FE35E
:101900000E94E8139501A60169837A838B839C83E7
:1019100069817A818B819C810E94EC1569837A832D
:101920008B839C8369817A818B819C810E94B70B18
:1019300035B89501A60169827A828B829C82698181
:101940007A818B819C810E94EC1569837A838B83D9
:101950009C8369817A818B819C810E94B70B20E0F6
:1019600030E040E85FE309831A838E818B838D81A9
:101970008C8369817A818B819C810E94E9138B0120
:101980008E839D83A4CF26960FB6F894DEBF0FBE3C
:10199000CDBFDF91CF911F910F91FF90EF90DF901E
:1019A000CF90BF90AF909F908F907F906F905F90FF
:1019B0004F903F9008950F931F93CF93DF93C82FBD
:1019C0008B01D42F0E94D902C8010E94E1028C2F02
:1019D0000E94FB026D2F8C2F0E9413031092820035
:1019E000DF91CF911F910F910895DF92EF92FF92B7
:1019F0000F931F93CF93DF9300D000D000D0CDB7CB
:101A0000DEB7D62EE72EF82E9E838A0120E030E046
:101A100040E752E469837A838B839C8369817A816E
:101A20008B819C810E945A1469837A838B839C8367
:101A300069817A818B819C810E94B8156D83ECE36A
:101A40006E9FC00111249C01990F440B550B2983F3
:101A50003A834B835C83CA01B9010E94CE149B0177
:101A6000AC01D982EA82FB828E818C8369817A8182
:101A70008B819C810E94E81369837A838B839C838A
:101A800069817A818B819C810E94B815FD81E4E691
:101A9000FE9FC0011124860F911DF8019183808360
:101AA00026960FB6F894DEBF0FBECDBFDF91CF9163
:101AB0001F910F91FF90EF90DF9008957F928F928A
:101AC0009F92AF92BF92CF92DF92EF92FF920F93CD
:101AD0001F93CF93DF937C01EB016A015901480109
:101AE0007880F50180817816F0F4F4E07F9E800123
:101AF0001124080D191DC8010E943608FC018081BF
:101B00009181E816F90668F08881F4E08F9FC001A2
:101B10001124B8018C0D9D1D0E94260888818F5FBD
:101B200088837394DECFDF91CF911F910F91FF9047
:101B3000EF90DF90CF90BF90AF909F908F907F906D
:101B400008959F92AF92BF92CF92DF92EF92FF9251
:101B50000F931F93CF93DF9300D000D000D0CDB769
:101B6000DEB78D839E837B016A01ED81FE81B080AB
:101B7000F7018081B81608F055C0F4E0BF9E8001DF
:101B800011240C0D1D1DC8010E943708FC01808125
:101B90008534F1F4C8010E943908FC018081282FA6
:101BA00030E050E040E029833A834B835C83CA01F4
:101BB000B9010E94CC14462F572FBC0180E00E942F
:101BC000D10AED81FE8180818F5F8083B394D0CF75
:101BD000C8010E943708FC0180818634B1F4C80135
:101BE0000E943908FC018081282F30E050E040E05D
:101BF00029833A834B835C83CA01B9010E94CC14C8
:101C0000462F572FBC0181E0DACFC8010E94390866
:101C1000982EA92EC8010E943708692D7A2D0E949E
:101C2000ED0FCFCF26960FB6F894DEBF0FBECDBF17
:101C3000DF91CF911F910F91FF90EF90DF90CF90A8
:101C4000BF90AF909F900895CF93DF93CDB7DEB74D
:101C50006A970FB6F894DEBF0FBECDBF8AE1EFEAF8
:101C6000F3E0DE01119601900D928A95E1F76AE1A9
:101C7000CE0101960E94BE026A960FB6F894DEBFAE
:101C80000FBECDBFDF91CF910895149A08950E94A1
:101C9000450E139A0895129A12980895149A13985B
:101CA0000895CF93DF93EC010E944E0E90E080E008
:101CB000288139818217930720F4119A119801968F
:101CC000F7CFDF91CF910895CF93DF93EC010E947E
:101CD000470E90E080E0288139818217930720F435
:101CE000119A11980196F7CFDF91CF91089514982A
:101CF0001298129A12980C94470ECF92DF92EF929C
:101D0000FF920F931F93CF93DF9300D0CDB7DEB731
:101D10000E94770E81E090E09A83898307E214E0C5
:101D200095EEC92E93E0D92EF12CE12CF801929179
:101D300082918F010197B9F4CE0101960E94640E41
:101D4000EE24E394F12CC016D10681F70E944B0ECD
:101D50000F900F90DF91CF911F910F91FF90EF9017
:101D6000DF90CF900895F1E0EF16F10461F7CE0116
:101D700001960E94510EE7CFEF92FF920F931F93AF
:101D8000CF93DF93EB01823009F44BC020F508E0DC
:101D900010E0EE24E394F12C81112BC010E000E060
:101DA000EE24E394F12C60E070E08AEF92E40E946C
:101DB000B70B8881813039F4F801EE0FFF1FEB512A
:101DC000FC4FF182E0820E947D0E0F5F1F4F0830B2
:101DD000110549F707C008E110E0EE24E394F12C67
:101DE0008330E1F1DF91CF911F910F91FF90EF9040
:101DF000089560E070E08AEF92E40E94B70B88815A
:101E0000813039F4F801EE0FFF1FEB51FC4FF182E6
:101E1000E0820E947D0E0F5F1F4F0031110549F7D0
:101E2000E1CF00E110E0EE24E394F12C60E070E0FB
:101E30008AEF92E40E94B70B8881813039F4F8016F
:101E4000EE0FFF1FEB51FC4FF182E0820E947D0EEE
:101E50000F5F1F4F0831110549F7C4CF60E070E0F4
:101E60008AEF92E40E94B70B8881813039F4F8013F
:101E7000EE0FFF1FEB51FC4FF182E0820E947D0EBE
:101E80000F5F1F4F0032110549F7ACCFEF92FF9261
:101E90000F931F93CF93DF93EB01823009F452C06D
:101EA00030F581112EC08091E5039091E6030197F2
:101EB00009F505EE13E085EDE82E83E0F82E60E0ED
:101EC00070E08AEF92E40E94B70B8881811107C00D
:101ED000F80186859785019711F4178616860E946A
:101EE0007D0E02501109E016F10649F703C0833058
:101EF00009F449C0DF91CF911F910F91FF90EF90AE
:101F000008958091F5039091F603019799F705EEF6
:101F100013E060E070E08AEF92E40E94B70B8881E2
:101F2000811107C0F801868D978D019711F4178EE6
:101F3000168E0E947D0E02501109F3E0053D1F0729
:101F400041F7D8CF8091050490910604019791F64E
:101F500005EE13E060E070E08AEF92E40E94B70BB8
:101F60008881811107C0F80186A597A5019711F412
:101F700017A616A60E947D0E02501109F3E0053D3A
:101F80001F0741F7B7CF8091150490911604019770
:101F900009F0B0CF05EE13E060E070E08AEF92E464
:101FA0000E94B70B8881811107C0F80186AD97ADFB
:101FB000019711F417AE16AE0E947D0E0250110962
:101FC000F3E0053D1F0741F795CF64E171E00C9404
:101FD000BC0E67E274E00C94460FFB01DC018C91AF
:101FE0008334B9F028F4813431F0823469F00895F3
:101FF0008434B1F008958081813019F480E00C942C
:10200000E50F80E00C94E90F80818130C1F381E01D
:10201000F9CF8081813011F482E0F1CF82E0F2CFFC
:102020008081813011F483E0EACF83E0EBCFFC01C3
:1020300080818062808384E08A95F1F780818F7D42
:1020400080830895DF92EF92FF920F931F93CF93B7
:10205000DF93D42EE901062F10E090E8899F7001EC
:1020600011248881817288838881980194E0359554
:1020700027959A95E1F7220F331F2E29282B2883C5
:10208000CE010E9417108881817288838881000F99
:10209000111F0E710E29082B0883CE010E94171004
:1020A00080E09AE19A95F1F700C08F5FD812F9CFDE
:1020B000DF91CF911F910F91FF90EF90DF900895E6
:1020C0009C0144EA61E080E00C9422109C0144EA07
:1020D00062E080E00C9422109A01880F682B646003
:1020E00044E080E00C94221054E0859FC00111244C
:1020F000482B660F642B686044E080E00C9422104B
:102100009A0148E0849FC001112444E0649FB0011B
:102110001124682B606144E080E00C9422109A0145
:1021200040E1849FC001112448E0649FB001112464
:10213000682B606244E080E00C9422109B018F7752
:10214000682F606444E080E00C9422109B01682FAB
:10215000606844E080E00C9422109B0144E0682F0A
:1021600081E00C942210CF93DF93FC01EB018FE20E
:1021700095E70197F1F700C00000808181728083AC
:1021800080818FEF808388818172888388818660D7
:10219000888388818E7F8883CB010E94171087E017
:1021A00090E20197F1F700C00000CE010E941710E5
:1021B00087EC90E00197F1F700C00000CE010E948B
:1021C00017109AE69A95F1F700C08881817288838A
:1021D000888184608883CE010E9417108AE68A95E0
:1021E000F1F700C09E0144E06CE280E00E94221002
:1021F0009E0140E060E080E00E947410CE010E94E9
:102200006010AE0160E081E00E946C109E0140E031
:1022100060E081E0DF91CF910C947410CF93DF9355
:10222000D82FC92F1F926F9387EF92E09F938F93C0
:10223000CF93DF930E9406190F900F900F900F908D
:102240000F900F908D2F9C2FDF91CF9108959C01BF
:1022500080E0F901E80FF11D9081992311F08F5F63
:10226000F8CF08951F93CF93DF9300D000D000D014
:10227000CDB7DEB78E83192F6D83262F2150330BF8
:10228000032E000C440B550B29833A834B835C834C
:10229000CA01B9010E94CE149B01AC0160E070E05C
:1022A00080E291E40E94591669837A838B839C8330
:1022B00069817A818B819C810E94B815862F4E811D
:1022C000E42FF12F20E03AE09E2F941B5D819517BB
:1022D00040F49191989F200D1124632F0E947E1548
:1022E000F3CF822F26960FB6F894DEBF0FBECDBF78
:1022F000DF91CF911F910895CDB7DEB7CF5ED1406A
:102300000FB6F894DEBF0FBECDBF8EEF81B98FEF51
:1023100084B98FED87B981EF8AB90E941E040E94AB
:10232000430580E00E94280581E00E942805CA51EB
:10233000DE4F19821882C65ED1408E0107581F4FAA
:102340007E0121EFE20EF11C6801C8010E94C30763
:102350000C5F1F4FE016F106C1F7C551DE4F188222
:10236000CB5ED1408E010F5F1F4F5801C8010E9404
:10237000C3070C5F1F4F0C151D05C1F7C651DE4F7B
:102380001882CA5ED140C751DE4F1882C95ED14063
:1023900035E0932E8091D903882309F41BC1813045
:1023A000C9F78AEC93E00E941E0680ED97E00E9438
:1023B000190569E371E08AEC93E00E94090780ED5A
:1023C00097E00E941905CE018B5D9E4F0E94D201BD
:1023D000CA51DE4F08811981C65ED140C801B0E004
:1023E000A0E0C451DE4F88839983AA83BB83CC5E6F
:1023F000D140B801CD010E94CC14462F572FBC010B
:102400004093D5035093D6036093D7037093D803BA
:102410008091D403882319F0C8010E945B04809145
:102420000001882309F4B9C160E0CE018B5D9E4FA5
:102430000E94DB019695879596958795899DC001A9
:1024400011249C01990F440B550BC451DE4F288376
:1024500039834A835B83CC5ED140CA01B9010E94B3
:10246000CE1420E030E04FE753E4C451DE4F6883E0
:10247000CC5ED140C351DE4F7883CD5ED140C25196
:10248000DE4F8883CE5ED140C151DE4F9883CF5E50
:10249000D140C451DE4F688179818A819B81CC5EB5
:1024A000D1400E945A14562E672E8C01C451DE4F23
:1024B0006883CC5ED140C351DE4F7883CD5ED1407E
:1024C000C251DE4F8883CE5ED140C151DE4F1883AA
:1024D000CF5ED140C451DE4F688179818A819B8172
:1024E000CC5ED1400E942D04782E892E20E030E071
:1024F000A901C451DE4F5882CC5ED140C351DE4F9A
:102500006882CD5ED140C251DE4F0883CE5ED1409D
:10251000C151DE4F1883CF5ED140C451DE4F688178
:1025200079818A819B81CC5ED1400E9455148111B2
:1025300004C088E0782E9DE3892E009184001091DC
:10254000850043E060E071E080E00E942B0460E0E1
:10255000872D982D0E9437031093850000938400E7
:102560003FEF40E752E0315040405040E1F700C0BB
:1025700000000E94BB078FEF0E94B2078091D50335
:102580009091D603A091D703B091D803C451DE4FE8
:1025900088839983AA83BB83CC5ED140A701BC0109
:1025A000CD010E94F50C86019E0125513E4FA501EB
:1025B000BE0166517E4FD7018D919C910E945E0DA8
:1025C000A501BE0166517E4FCE0187519E4F0E94EC
:1025D000A10D25CF8AEC93E00E941E0680ED97E0C6
:1025E0000E9419056BE271E08AEC93E00E940907F2
:1025F00080ED97E00E94190580E2E4E4F1E0DE015D
:10260000A057BE4F01900D928A95E1F760E2CE018E
:1026100080579E4F0E94BE0283E2E4E6F1E0DE01B5
:10262000A359BE4F01900D928A95E1F763E2CE0166
:1026300083599E4F0E94BE0285E2E7E8F1E0DE0189
:10264000AB5DBE4F01900D928A95E1F765E2CE0138
:102650008B5D9E4F0E94BE028AE1ECEAF1E0DE0152
:10266000A453BE4F01900D928A95E1F76AE1CE0125
:1026700084539E4F0E94BE0283E2E6ECF1E0DE014D
:10268000A65BBE4F01900D928A95E1F763E2CE0101
:10269000865B9E4F0E94BE028CE1E9EEF1E0DE0116
:1026A000A055BE4F01900D928A95E1F76CE1CE01E5
:1026B00080559E4F0E94BE0261E0CE0188519E4F20
:1026C0000E944705C851DE4F8881C85ED1408430E2
:1026D00009F455C0A8F4823009F443C0833009F4EA
:1026E00045C08130C1F084E3E5E0F2E0D70101901C
:1026F0000D928A95E1F764E3C7010E94BE0228C0EB
:10270000853009F443C0863071F781E08093D903A6
:10271000809300011DC00E941E040E946B04B7013B
:10272000CE018A519E4F0E94A404811103C00E94D1
:10273000240E0EC0CA51DE4F88819981C65ED140F9
:1027400080529E4F90930201809301011092D40316
:10275000C851DE4F8881C85ED140863009F04CCF29
:1027600019CE0E94D1038111F3CFE1CFC551DE4FC5
:102770006881CB5ED140C6010E943E09E9CFBE010F
:1027800065517E4FC6010E94640AEDCFBE016551BE
:102790007E4FC6010E94A108E6CFA501BE01665189
:1027A0007E4FCE0187519E4F0E94A10DCE018B5DC1
:1027B0009E4F0E94D801EECD45E250E064E270E009
:1027C0008AEC93E00C94CC058AEC93E00C94EA0537
:1027D0005058BB27AA270E9400140C9444150E944D
:1027E000361538F00E943D1520F039F49F3F19F45A
:1027F00026F40C9433150EF4E095E7FB0C942D159C
:10280000E92F0E94551558F3BA176207730784071A
:10281000950720F079F4A6F50C9477150EF4E09561
:102820000B2EBA2FA02D0B01B90190010C01CA018A
:10283000A0011124FF27591B99F0593F50F4503E35
:1028400068F11A16F040A22F232F342F4427585F27
:10285000F3CF469537952795A795F0405395C9F73F
:102860007EF41F16BA0B620B730B840BBAF09150F7
:10287000A1F0FF0FBB1F661F771F881FC2F70EC096
:10288000BA0F621F731F841F48F487957795679569
:10289000B795F7959E3F08F0B0CF9395880F08F055
:1028A0009927EE0F9795879508950E94091508F4CA
:1028B00081E008950E946E140C9444150E943D1509
:1028C00058F00E94361540F029F45F3F29F00C942F
:1028D0002D1551110C9478150C9433150E94551533
:1028E00068F39923B1F3552391F3951B550BBB273F
:1028F000AA2762177307840738F09F5F5F4F220F84
:10290000331F441FAA1FA9F335D00E2E3AF0E0E87A
:1029100032D091505040E695001CCAF72BD0FE2FC4
:1029200029D0660F771F881FBB1F26173707480758
:10293000AB07B0E809F0BB0B802DBF01FF27935810
:102940005F4F3AF09E3F510578F00C942D150C9492
:1029500078155F3FE4F3983ED4F3869577956795B5
:10296000B795F7959F5FC9F7880F911D9695879545
:1029700097F90895E1E0660F771F881FBB1F621764
:1029800073078407BA0720F0621B730B840BBA0B22
:10299000EE1F88F7E0950895E89409C097FB3EF490
:1029A00090958095709561957F4F8F4F9F4F99239C
:1029B000A9F0F92F96E9BB279395F695879577951A
:1029C0006795B795F111F8CFFAF4BB0F11F460FFDA
:1029D0001BC06F5F7F4F8F4F9F4F16C0882311F032
:1029E00096E911C0772321F09EE8872F762F05C046
:1029F000662371F096E8862F70E060E02AF09A95E1
:102A0000660F771F881FDAF7880F9695879597F9D5
:102A10000895990F0008550FAA0BE0E8FEEF16166F
:102A20001706E807F907C0F012161306E407F507C2
:102A300098F0621B730B840B950B39F40A2661F036
:102A4000232B242B252B21F408950A2609F4A140D9
:102A5000A6958FEF811D811D089597F99F6780E8E6
:102A600070E060E008959FEF80EC089500240A94E0
:102A70001616170618060906089500240A94121659
:102A80001306140605060895092E0394000C11F48C
:102A9000882352F0BB0F40F4BF2B11F460FF04C039
:102AA0006F5F7F4F8F4F9F4F089557FD9058440F92
:102AB000551F59F05F3F71F04795880F97FB991F9D
:102AC00061F09F3F79F0879508951216130614065A
:102AD000551FF2CF4695F1DF08C0161617061806E7
:102AE000991FF1CF86957105610508940895E894C2
:102AF000BB2766277727CB0197F90895991B79E0C3
:102B000004C0991F961708F0961B881F7A95C9F77D
:102B100080950895AA1BBB1B51E107C0AA1FBB1FCC
:102B2000A617B70710F0A61BB70B881F991F5A9559
:102B3000A9F780959095BC01CD01089597FB072ECC
:102B400016F4009407D077FD09D00E948A1507FC7F
:102B500005D03EF4909581959F4F089570956195AD
:102B60007F4F0895EE0FFF1F0590F491E02D09941B
:102B70000E945D1588F09F5798F0B92F9927B7519B
:102B8000B0F0E1F0660F771F881F991F1AF0BA9511
:102B9000C9F714C0B13091F00E947715B1E00895E3
:102BA0000C947715672F782F8827B85F39F0B93FD5
:102BB000CCF3869577956795B395D9F73EF49095C4
:102BC0008095709561957F4F8F4F9F4F08950E941C
:102BD000091508F48FEF08950E94FF150C94441511
:102BE0000E94361538F00E943D1520F0952311F013
:102BF0000C942D150C94331511240C9478150E9407
:102C0000551570F3959FC1F3950F50E0551F629FC6
:102C1000F001729FBB27F00DB11D639FAA27F00D35
:102C2000B11DAA1F649F6627B00DA11D661F829F5C
:102C30002227B00DA11D621F739FB00DA11D621F41
:102C4000839FA00D611D221F749F3327A00D611D5E
:102C5000231F849F600D211D822F762F6A2F112440
:102C60009F5750409AF0F1F088234AF0EE0FFF1F73
:102C7000BB1F661F771F881F91505040A9F79E3FCA
:102C8000510580F00C942D150C9478155F3FE4F3FA
:102C9000983ED4F3869577956795B795F795E79520
:102CA0009F5FC1F7FE2B880F911D9695879597F929
:102CB0000895FA01EE0FFF1F309621053105A1F1AD
:102CC0006115710561F48038BFE39B0749F1689491
:102CD0009038810561F08038BFEF9B0741F0992360
:102CE0004AF5FF3FE1053105210519F1E894089403
:102CF000E795D901AA2329F4AB2FBE2FF85FD0F3B3
:102D000010C0FF5F70F4A695E0F7F73950F019F0A6
:102D1000FF3A38F49F779F930DD00F9007FC90589F
:102D2000089546F00C94331560E070E080E89FE36E
:102D300008954FE79F775F934F933F932F930E94A0
:102D400054172F913F914F915F910E94EC150C9475
:102D5000B11629F416F00C942D150C9477150C94DB
:102D600033150E945D15A8F39638A0F707F80F9267
:102D7000E8942BE33AEA48EB5FE70E9402160F92D1
:102D80000F920F924DB75EB70F920E949C17ECE71F
:102D9000F0E00E94E3164F915F91EF91FF91E5956E
:102DA000EE1FFF1F49F0FE57E0684427EE0F441F57
:102DB000FA95E1F74195550B0E9416170F9007FE03
:102DC0000C940A170895DF93CF931F930F93FF92EC
:102DD000EF92DF927B018C01689406C0DA2EEF013E
:102DE0000E94FF15FE01E894A5912591359145912A
:102DF0005591A6F3EF010E940014FE019701A8016E
:102E0000DA9469F7DF90EF90FF900F911F91CF91C7
:102E1000DF9108959B01AC0160E070E080E89FE3E2
:102E20000C945A140C942D150C94D0170E945D1517
:102E3000D8F39923C9F3940F511DA3F39150504037
:102E400094F059F0882332F0660F771F881F915055
:102E50005040C1F79E3F51052CF7880F911D969564
:102E6000879597F908955F3FACF0983E9CF0BB279B
:102E7000869577956795B79508F4B1609395C1F7F6
:102E8000BB0F58F711F460FFE8CF6F5F7F4F8F4F94
:102E90009F4FE3CF0C94781516F00C94D0170C9438
:102EA000331568940C942D150E945D15A8F3992391
:102EB000C1F3AEF3DF93CF931F930F93FF92C92F0C
:102EC000DD2788232AF02197660F771F881FDAF7FE
:102ED00020E030E040E85FEB9FE3883920F0803E5F
:102EE00038F021968F770E94E913E4EAF0E004C0FD
:102EF0000E94E913E1EDF0E00E94E3168B01BE01B0
:102F0000EC01FB2E6F5771097595771F880B990B94
:102F10000E94CE1428E132E741E35FE30E94FF15EF
:102F2000AF2D9801AE01FF900F911F91CF91DF91CE
:102F30000E9400140C944415FA01DC01AA0FBB1F77
:102F40009B01AC01BF5728F4222733274427507830
:102F500020C0B75190F4AB2F0024469537952795A4
:102F6000011CA395D2F3002071F0220F331F441FE0
:102F7000B395DAF30ED00C94E81361307105A0E834
:102F80008A07B94630F49B01AC016627772788276A
:102F90009078309621F020833183428353830895C3
:102FA0009F3F31F0915020F4879577956795B795BD
:102FB000880F911D9695879597F908950F931F9304
:102FC000CF93DF939C01029710F422E030E0E09170
:102FD0002A04F0912B0490E080E0B0E0A0E030976C
:102FE00091F4009709F445C0821B930B843091053E
:102FF000B8F58A819B816115710569F1FB019383A5
:103000008283FE0111C040815181028113814217E8
:103010005307F0F04217530799F4109761F0129696
:103020000C93129713961C933296CF01DF91CF9198
:103030001F910F91089500932A0410932B04F4CF4D
:10304000009719F04817590718F4CA01BD01EF019C
:10305000DF01F801C4CF90932B0480932A04D1CFD1
:10306000FE01E80FF91F219331930297998388831A
:10307000DCCF8091280490912904892B41F4809120
:10308000170190911801909329048093280480914E
:10309000150190911601009741F48DB79EB74091AC
:1030A000190150911A01841B950B409128045091ED
:1030B00029044817590708F0B8CF841B950B8217CD
:1030C000930708F4B2CFB9016E5F7F4F8617970759
:1030D00008F4ABCF640F751F709329046093280424
:1030E000FA0121933193A1CFCF93DF939C010097F5
:1030F000E9F0FC01329713821282C0912A04D09128
:103100002B04DE0190E080E02097A1F48081918182
:10311000280F391F80912804909129048217930762
:1031200009F067C0F0932904E0932804DF91CF9160
:103130000895DA01AE17BF0708F041C012964D910D
:103140005C911397CD014115510599F7DC01139658
:10315000FC93EE9312974D915D91A40FB51FEA1762
:10316000FB0781F4208131812E5F3F4F240F351FF3
:10317000DC0111963C932E932281338113963C936C
:103180002E931297B0E0A0E08A819B810097B1F561
:10319000FE0181919191E80FF91F8091280490918F
:1031A00029048E179F0711F6109759F510922B04DA
:1031B00010922A04D0932904C0932804B7CFB38374
:1031C000A28340815181240F351FA217B30771F4E8
:1031D0004E5F5F4F2D913C911197420F531F5183CA
:1031E000408312962D913C9133832283009709F0FE
:1031F000ADCFF0932B04E0932A0498CFDE01EC01CD
:10320000C3CF13961C921E921297D4CFAEE0B0E0BB
:10321000ECE0F9E10C94C91B0D891E8986E08C83D2
:103220001A8309838FEF9FE79E838D83AE01475EEC
:103230005F4F6F89788DCE0101960E9429192F81E9
:103240003885020F131FF80110822E96E4E00C94CB
:10325000E51BAFE0B0E0EFE2F9E10C94BB1B7C01B1
:103260003B018A01DC0117961C921E921697139659
:103270008C9181FFC3C19AE0292EFE0131964F0146
:10328000D70113969C91F30193FD859193FF819152
:103290003F01882309F448C1853239F493FD8591B3
:1032A00093FF81913F01853229F4B70190E00E949C
:1032B000171BE6CFB12C412C512CBFE1B51538F0CE
:1032C0008B3209F188F4803201F1833221F157FC0D
:1032D0003AC020ED280F2A3040F556FE1FC0B29CA0
:1032E000200D1124B22E06C08D3291F0803379F773
:1032F000689450F8F30193FD859193FF81913F010C
:103300008111DBCF20C0689451F8689452F8F2CF55
:10331000689453F8EFCF689454F8ECCF429C200D9A
:103320001124422E689455F8E5CF8E3229F456FCCC
:10333000FBC0689456F8DECF8C3619F4689457F8C1
:10334000D9CF8836B9F2982F9F7D95549330C0F02D
:103350008336A1F18337C1F1833509F05BC0D80111
:10336000CD90DD908D016B2D70E056FC02C06FEFAB
:103370007FEFC6010E94011B5C01689457F80AC0E8
:103380000C5F1F4FEFE3E983AA24A394B12C6401DF
:10339000E89457F853FC04C04A141B0409F018F5CC
:1033A000342CA114B10431F5332009F469CFB701ED
:1033B00080E290E00E94171B3A94F6CFD8018C91DE
:1033C00089830E5F1F4FE0CFF801C190D1908F012C
:1033D0006B2D70E056FC02C06FEF7FEFC6010E94BC
:1033E0000C1B5C01D5CFB70180E290E00E94171B57
:1033F0004A94D2CFF60157FC859157FE81916F0117
:10340000B70190E00E94171B31103A94B1E0AB1A5B
:10341000B108C7CF843619F0893609F074C0F801B5
:1034200057FE6AC061917191819191918F01E52D53
:10343000EF76DE2E97FF09C0909580957095619587
:103440007F4F8F4F9F4F6894D7F82AE030E0A40158
:103450000E94471BC82EC818AC2C5D2CD6FE0CC091
:10346000E89450F8CB1440F4D4FE05C0D2FC03C05D
:103470005D2D5E7E552EAB2C54FE98C0FE01EC0DEA
:10348000F11D8081803309F08AC0652D697E562E3A
:10349000752D7870372E53FC98C050FE92C0BC2C0E
:1034A000A41418F44C0CB42CBA1854FE94C0B701F0
:1034B00080E390E00E94171B52FE09C088E790E06D
:1034C00051FE02C088E590E0B7010E94171BCB14A3
:1034D00008F48DC0CA94D12C8FEFC81AD80AC80C32
:1034E000D91CD6018E916D01B70190E00E94171B87
:1034F0008C149D04B1F758CF61917191072E000C87
:10350000880B990B93CFD52CE894D4F82AE030E0BF
:10351000853739F1F52DF97FDF2E8037A9F058F482
:103520008835A9F08F36D9F0F701868197812F96DB
:10353000E2E10C94D71B8837B9F7D4FE02C0689437
:10354000D2F820E130E00DC06894D4F8F6CF54FEF4
:1035500003C02F2F2660D22E20E132E002C028E0E7
:1035600030E0F801D7FE15C0419151916191719100
:103570004C875D876E877F878F01A4016C857D8571
:103580008E859F850E94471BC82EC818E894D7F8DF
:1035900063CF81919191AC0170E060E0E9CF52FC82
:1035A00002C0A39475CFA394A39472CF852D86787F
:1035B00009F46ECFF6CFB70180E290E00E94171BAE
:1035C000A394A414C0F3312C70CF342C3A18A41453
:1035D00008F46BCFF8CF852D867809F478CF8BE28D
:1035E00051FE80E257FC8DE2B70190E06ECFB7014B
:1035F00080E390E00E94171BBA9469CF8FEF9FEF92
:1036000096CFFC010590615070400110D8F780956D
:1036100090958E0F9F1F0895FC016150704001909E
:103620000110D8F7809590958E0F9F1F08950F93E6
:103630001F93CF93DF93182F092FEB018B8181FD0F
:1036400009C01FEF0FEF812F902FDF91CF911F91B6
:103650000F91089582FF14C02E813F818C819D813E
:10366000281739073CF4E881F981CF010196998345
:10367000888310838E819F8101969F838E83E3CF01
:10368000E885F985812F0995892BA1F3DACFFA0115
:10369000AA27283051F1203181F1E8946F936E7F91
:1036A0006E5F7F4F8F4F9F4FAF4FB1E03ED0B4E082
:1036B0003CD0670F781F891F9A1FA11D680F791FC3
:1036C0008A1F911DA11D6A0F711D811D911DA11DD4
:1036D00020D009F468943F912AE0269F11243019E4
:1036E000305D3193DEF6CF010895462F4770405D7F
:1036F0004193B3E00FD0C9F7F6CF462F4F70405D2E
:103700004A3318F0495D31FD4052419302D0A9F788
:10371000EACFB4E0A6959795879577956795BA9582
:10372000C9F700976105710508959B01AC010A2E48
:1037300006945795479537952795BA95C9F7620F1F
:10374000731F841F951FA01D0895F999FECF92BD88
:1037500081BDF89A992780B50895262FF999FECF53
:103760001FBA92BD81BD20BD0FB6F894FA9AF99A9E
:103770000FBE019608952F923F924F925F926F92E3
:103780007F928F929F92AF92BF92CF92DF92EF92F1
:10379000FF920F931F93CF93DF93CDB7DEB7CA1B72
:1037A000DB0B0FB6F894DEBF0FBECDBF09942A889D
:1037B000398848885F846E847D848C849B84AA8445
:1037C000B984C884DF80EE80FD800C811B81AA81D2
:1037D000B981CE0FD11D0FB6F894DEBF0FBECDBF9D
:1037E000ED01089510E0C0E8D0E004C0FE010E94A1
:0E37F000B2152196C138D107C9F7F894FFCF62
:1037FE0001E0010200007F4300000441CDCC4C3DAE
:10380E00000034430100002C0420000001020304D8
:10381E000506070809414243444546436F6E6669F3
:10382E006775726174696F6E0053696D756C617442
:10383E00696F6E000A0A312D20446566696E6972E1
:10384E00206C2768657572652064652064657061FB
:10385E0072740A00322D20446566696E6972206C9E
:10386E002765746174206427756E20646973706FA8
:10387E0073697469660A00332D2041666669636850
:10388E006572206C657320616374696F6E7320704E
:10389E00726F6772616D6D6565730A00342D20500D
:1038AE00726F6772616D6D657220756E65206163F2
:1038BE0074696F6E0A00352D205375707072696DC4
:1038CE00657220756E6520616374696F6E2070720B
:1038DE006F6772616D65650A00362D2044656D61F6
:1038EE0072726572206C612073696D756C6174699A
:1038FE006F6E0A0A000A0A566575696C6C657A2045
:10390E00656E7472657220756E206E756D65726F60
:10391E002064276F7074696F6E2076616C696465C0
:10392E00205B31202D20365D000A0A566575696CC4
:10393E006C657A20646566696E6972206C276574A1
:10394E006174206427756E20646973706F73697477
:10395E0069660A0A000A0A456E7472657A206C2737
:10396E006865757265206574206C6573206D696E6F
:10397E00757465732064652064657061727420646B
:10398E0065206C612073696D756C6174696F6E2E44
:10399E002048484D4D0A0A0030313233343536371F
:1039AE0038396162636465660025750025690025F6
:1039BE0063000A0A566575696C6C657A20656E74CB
:1039CE00726572206C65206E756D65726F20646510
:1039DE00206C27616374696F6E206120737570703F
:1039EE0072696D65720A002564000A0A496C206EC0
:1039FE002779206120617563756E65206163746936
:103A0E006F6E2070726F6772616D6D65650A000A68
:103A1E000A4C69737465206427616374696F6E73F1
:103A2E002070726F6772616D656573203A0A0020AF
:103A3E002D200020612000202D206F7269656E748C
:103A4E00657220736572766F6D6F74657572200086
:103A5E00206465677265730A00202D206665726D9D
:103A6E00657220706F7274652000202D206F757640
:103A7E0072697220706F72746520000A0A5665753D
:103A8E00696C6C657A2070726F6772616D6D6572AC
:103A9E0020756E6520616374696F6E203A0A000AA4
:103AAE000A496E666F726D6174696F6E7320696E0E
:0A3ABE0076616C696465730A00000C
:00000001FF
