:100000000C9440000C94F6000C94D1000C94680001
:100010000C9468000C9468000C9468000C946800C0
:100020000C9468000C9468000C9468000C946800B0
:100030000C9468000C946A000C9468000C9468009E
:100040000C9468000C9468000C9468000C94680090
:100050000C9468000C9468000C9468000C94680080
:100060000C9468000C9468000C9468000C94680070
:100070000C9468000C9468000C9468004C095409B6
:1000800011241FBECFEFD8E0DEBFCDBF11E0A0E04E
:10009000B1E0ECEBFFE102C005900D92A437B1078F
:1000A000D9F721E0A4E7B1E001C01D92A638B2075C
:1000B000E1F710E0CFE3D0E004C02197FE010E94F9
:1000C000450BCE33D107C9F70E9490080C94D10F8D
:1000D0000C9400001F920F920FB60F9211242F93D1
:1000E0003F934F935F936F937F938F939F93AF93C0
:1000F000BF93EF93FF93CF93DF9300D000D0CDB7A2
:10010000DEB78091740190917501A0917601B09154
:10011000770189839A83AB83BC8320E030E040E0A1
:100120005FE3BC01CD010E945909462F572FBC0146
:100130004093740150937501609376017093770139
:100140008091740190917501A0917601B091770131
:1001500089839A83AB83BC8320E030EE43EB54E485
:10016000BC01CD010E94C509811104C00E94220377
:10017000109200010F900F900F900F90DF91CF9190
:10018000FF91EF91BF91AF919F918F917F916F916F
:100190005F914F913F912F910F900FBE0F901F9045
:1001A00018951F920F920FB60F9211242F933F9321
:1001B0004F935F936F937F938F939F93AF93BF936F
:1001C000EF93FF930E942203E19AFF91EF91BF9179
:1001D000AF919F918F917F916F915F914F913F91DF
:1001E0002F910F900FBE0F901F9018951F920F9296
:1001F0000FB60F9211242F933F934F935F936F93FA
:100200007F938F939F93AF93BF93EF93FF93CF937E
:10021000DF9300D000D0CDB7DEB786B590E0019671
:100220009695982F88279795879568EA76E10E949A
:10023000310B623020F40E94220310920001809161
:10024000740190917501A0917601B0917701898335
:100250009A83AB83BC8320E030EE43EB54E4BC01D3
:10026000CD010E94C509882319F081E08093000127
:10027000E09A0F900F900F900F90DF91CF91FF9128
:10028000EF91BF91AF919F918F917F916F915F910E
:100290004F913F912F910F900FBE0F901F90189587
:1002A0008FEF8AB981E08BB92FEF89E698E1215071
:1002B00080409040E1F700C000001BB808950C9406
:1002C0003207CF93DF9300D000D0CDB7DEB79B01CC
:1002D000AC0160E070EC82EA94E40E94CA0920E07C
:1002E00030E040E85FE369837A838B839C83698194
:1002F0007A818B819C810E94580969837A838B83E0
:100300009C8369817A818B819C810E943C0ACB010C
:100310000F900F900F900F90DF91CF910895CF9392
:10032000DF93EC0164E00E94B3033881323090F532
:1003300059815A3008F055C04A81463008F051C002
:100340002B812A3008F04DC068E572E0369FC0016D
:10035000379F900D11243CE3539F800D911D112474
:100360005AE0459F800D911D1124820F911D30E0B0
:1003700020E040E22817390721F481E0DF91CF9196
:1003800008954BB95AE15A95F1F700C01BB82F5F99
:100390003F4FF0CF323029F58981843010F53A8112
:1003A0003630F8F42B812A30E0F44CE3849FC0010E
:1003B000112480559B4F5AE0359F800D911D1124CB
:1003C000820F911D30E020E040E24BB95AE15A958E
:1003D000F1F700C01BB82F5F3F4F82179307A9F7B3
:1003E000CCCF80E0CBCFCF93DF93CDB7DEB7C05477
:1003F000D1090FB6F894DEBF0FBECDBF80E4EAE1AD
:10040000F1E0DE01119601900D928A95E1F760E42A
:10041000CE0101960E940203C05CDF4F0FB6F89434
:10042000DEBF0FBECDBFDF91CF91089510927C004B
:1004300086E880937A00089510927A00089580915A
:100440007C00807E80937C0080917C006770682BAC
:1004500060937C0080917A00806480937A00809120
:100460007A0084FFFCCF80917A00806180937A00CB
:100470002091780090917900892F90E0982F88271B
:10048000820F911D0895CF92DF92EF92FF920F930A
:100490001F93CF93DF9300D0CDB7DEB7F82E2DB7E3
:1004A0003EB73A83298370E0082F10E0601B710B80
:1004B0008DB79EB7861B970B0FB6F8949EBF0FBEE5
:1004C0008DBF2DB73EB72F5F3F4F6901E02EEF186C
:1004D000C8010E94840F8F3F39F0F601EE0DF11D27
:1004E00080830F5F1F4FF2CFC60129813A810FB67B
:1004F000F8943EBF0FBE2DBF0F900F90DF91CF91AC
:100500001F910F91FF90EF90DF90CF900895EF92A1
:10051000FF920F931F93CF93DF93042F10E0EC0112
:100520007C01E60EF11CCE15DF0539F06991C8019A
:100530000E948C0F0F5F1F4FF6CFDF91CF911F915D
:100540000F91FF90EF900895813049F0823059F07B
:10055000811104C08091C2008093C20008958091EF
:10056000C2008062F9CF8091C2008063F5CF8130F4
:1005700019F0823031F008958091C2008093C2005A
:1005800008958091C2008860F9CF8730A1F028F4E7
:10059000853041F0863059F00895883081F08930F7
:1005A00071F008958091C2008093C20008958091F7
:1005B000C2008260F9CF8091C2008460F5CF809143
:1005C000C2008660F1CFCF93DF93D62FC42F109255
:1005D000C5009FEC9093C4001092C00098E19093E6
:1005E000C1000E94A4028D2F0E94B7028C2FDF91C0
:1005F000CF910C94C5029091C00095FFFCCF8093E1
:10060000C60008950F931F93CF93DF93EC018C01E5
:10061000060F111DC017D10721F089910E94FB021E
:10062000F9CFDF91CF911F910F9108958091C00074
:1006300087FFFCCF8091C60008951092850010922C
:10064000840008951092810008959C01211581E095
:10065000380789F040F42830310549F083E0203430
:10066000310531F008952115344039F0089582E0C4
:1006700080938100089584E0FBCF85E0F9CF81303D
:1006800051F0823071F0811105C080918100886045
:100690008093810008958091800081608093800024
:1006A000089580918000816080938000EECF81303A
:1006B000E9F08230D9F081111DC0611104C0809130
:1006C0008000806F0AC0613021F480918000806AD0
:1006D00004C0623029F480918000809380000AC0B9
:1006E000633041F4809180008065F7CF662339F351
:1006F000613059F308959C01109285001092840096
:10070000613069F0623039F061110DC09093890059
:100710008093880008959093890080938800309397
:100720008B0020938A000895F894882321F081306B
:1007300069F078940895E89A80916900809369003F
:1007400080916900826080936900F3CFE99A80917B
:10075000690080936900809169008860F4CF82E02D
:1007600080936F000895FF920F931F93CF93DF93B1
:10077000CDB7DEB760970FB6F894DEBF0FBECDBF22
:100780009C0117B880E1E7E0F1E0DE0111960190ED
:100790000D928A95E1F780E090E1F92E72E0760FF4
:1007A0008617C9F1F8B8D9019C919554923008F494
:1007B000672F663031F4F90194819554923008F432
:1007C000672F50E040E0AFE1BEE41197F1F700C0C1
:1007D0000000359B17C0EFE1FEE43197F1F700C050
:1007E0000000359B0FC03599FECFD901A80FB11D70
:1007F00001E010E00C0F1D1F040F151FF801908180
:100800009C938F5F98B19F5F98B94F5F5F4F403166
:100810005105C9F6C5CF60960FB6F894DEBF0FBE7E
:10082000CDBFDF91CF911F910F91FF900895CF938E
:10083000DF93EC01CB01BA01188219821A821B8264
:100840004C837D83188619860E94E8074C815D8160
:1008500060E081E00E94A10780E190E00E94BD0B72
:100860009F838E83DF91CF910895FC0186819781CC
:100870000C94530C1F93CF93DF93EC01162F2C8114
:100880003D81462F6B8181E00E94A9071A83DF9189
:10089000CF911F9108951F93CF93DF93EC01162FF3
:1008A0002C813D814A8181E00E94A9071B83DF9151
:1008B000CF911F910895FC01862F603248F4618327
:1008C00064817581803110F40C94DB07805DFCCF6E
:1008D0000895CF93DF93EC018C819D810E94950751
:1008E00018826981CE01DF91CF910C945B046F92E5
:1008F0007F928F929F92AF92BF92CF92DF92EF92B0
:10090000FF920F931F93CF93DF93EC018B01F42E93
:10091000E22ECB010E9441086C017A808B8060E05E
:10092000CE010E943A0460E0CE010E944B04EE200A
:1009300019F0CE010E9469042FE12F1508F45CC064
:100940008F2D90E0A601552720E230E0281B390BBF
:10095000C216130611F00CF04FC09C2C6C817D81E7
:10096000EFE0EF1548F1840F951FEC2C40971CF039
:1009700080E1E82EEF188F2D0E94DB07602E5801D2
:100980006C817D818A2D86198E1530F4F501819157
:100990005F010E94E207F4CF80E40E94DB070E0DA6
:1009A000111DE914D8F46C817D81F80181918F01CA
:1009B0000E94E207E394F5CF80E38F0D0E94DB07EE
:1009C000E02E58018A2D8E19891540F46C817D81A5
:1009D000F50181915F010E94E207F4CF6981CE01A8
:1009E0000E945B04672DCE010E943A04682DCE015F
:1009F0000E944B04FC0CF882DF91CF911F910F9164
:100A0000FF90EF90DF90CF90BF90AF909F908F902E
:100A10007F906F9008956115710511F00C94770423
:100A200008950F931F93CF93DF9300D0CDB7DEB718
:100A30008C011A82698320E0FC014081BE016F5F56
:100A40007F4F0E947704C8010F900F90DF91CF91E4
:100A50001F910F910895EF92FF920F931F93CF93E1
:100A6000DF938C01862FEA016830B8F42097A9F053
:100A7000F80164817581880F880F880F0E94D30761
:100A80007E01F8E0EF0EF11CF80164817581899117
:100A90000E94E207CE15DF05B9F7DF91CF911F91D4
:100AA0000F91FF90EF900895CF93DF93EC01CB016E
:100AB000892B29F020E04881CE010E940B05CE0150
:100AC000DF91CF910895CF93DF93EC017F936F93E4
:100AD0008AE591E09F938F938F818F938E818F937F
:100AE0000E94E50C6E817F81CE010E9454050F901B
:100AF0000F900F900F900F900F90CE01DF91CF913C
:100B00000895CF93DF93EC017F936F938DE591E090
:100B10009F938F938F818F938E818F930E94E50C8B
:100B20006E817F81CE010E9454050F900F900F902F
:100B30000F900F900F90CE01DF91CF910895CF933A
:100B4000DF93EC011F926F9380E691E09F938F9368
:100B50008F818F938E818F930E94E50C6E817F81B0
:100B6000CE010E9454050F900F900F900F900F90A0
:100B70000F90CE01DF91CF9108950F931F93CF93E4
:100B8000DF93EC018B016115710561F0288581E02F
:100B900028274985CE010E940B058885882311F0FE
:100BA00018861986C801DF91CF911F910F91089582
:100BB000FC01603218F4618781E08087CF010895DD
:100BC0000F931F93CF93DF93EC018881082F681751
:100BD00008F4062F801B888310E0101731F060E2C4
:100BE000CE010E9411051F5FF8CF8881811B888389
:100BF000DF91CF911F910F91089516BC94B592602B
:100C000094BD95B5956095BD87BD089580E488B97C
:100C10008AE18A95F1F700C018B808950F931F93E1
:100C2000CF93DF9300D000D000D0CDB7DEB78B01DB
:100C30008E839D8320E030E0A90169831A838E8131
:100C40008B839D819C8369817A818B819C810E94A9
:100C50004B0B1816BCF48FEC97E00197F1F700C02E
:100C6000000020E030E040E85FE309831A839E81C2
:100C70009B838D818C8369817A818B819C810E9489
:100C80005809D5CF26960FB6F894DEBF0FBECDBF5C
:100C9000DF91CF911F910F910895CF93DF9300D0F3
:100CA00000D0CDB7DEB79B01AC0160E070E080E81A
:100CB0009FE30E94CA0920E030E04AE754E46983D8
:100CC0007A838B839C8369817A818B819C810E944A
:100CD000500B69837A838B839C8369817A818B81B2
:100CE0009C810F900F900F900F90DF91CF910895FE
:100CF0003F924F925F926F927F928F929F92AF92AC
:100D0000BF92CF92DF92EF92FF920F931F93CF93F8
:100D1000DF9300D000D000D0CDB7DEB739014A0153
:100D20009B01AC0160E070E080E89FE30E94CA098B
:100D300020E030E04AE754E469837A838B839C8324
:100D400069817A818B819C810E94500B5B016C01CF
:100D50009B01AC01E982FA820B831C8369817A8151
:100D60008B819C810E94CA09F62EE72E582E492EAF
:100D700000E010E01E821D82332433942F2D3E2D7F
:100D8000452D542D09831A838E818B838D818C830D
:100D900069817A818B819C810E94C50987FF4AC045
:100DA00015B89301A40160E070E080E89FE30E9421
:100DB00058099501A60169837A838B839C83698195
:100DC0007A818B819C810E94500B69837A838B830B
:100DD0009C8369817A818B819C810E940E0635B843
:100DE0009501A60169827A828B829C8269817A81CF
:100DF0008B819C810E94500B69837A838B839C83B7
:100E000069817A818B819C810E940E0620E030E00E
:100E100040E85FE309831A838E818B838D818C8305
:100E200069817A818B819C810E9459098B018E8313
:100E30009D83A4CF26960FB6F894DEBF0FBECDBF1C
:100E4000DF91CF911F910F91FF90EF90DF90CF90A6
:100E5000BF90AF909F908F907F906F905F904F90DA
:100E60003F9008950F931F93CF93DF93C82F8B016B
:100E7000D42F0E941D03C8010E9425038C2F0E94BD
:100E80003F036D2F8C2F0E94570310928200DF9139
:100E9000CF911F910F910895FC0180818062808322
:100EA00084E08A95F1F780818F7D80830895DF92B9
:100EB000EF92FF920F931F93CF93DF93D42EE9010C
:100EC000062F10E090E8899F7001112488818172BB
:100ED00088838881980194E0359527959A95E1F764
:100EE000220F331F2E29282B2883CE010E944C0766
:100EF0008881817288838881000F111F0E710E29ED
:100F0000082B0883CE010E944C0780E093E09A955D
:100F1000F1F700008F5FD812F9CFDF91CF911F91C9
:100F20000F91FF90EF90DF9008959C0144EA61E0FB
:100F300080E00C9457079C0144EA62E080E00C9446
:100F400057079A01880F682B646044E080E00C9496
:100F5000570754E0859FC0011124482B660F642B6E
:100F6000686044E080E00C9457079A0148E0849F51
:100F7000C001112444E0649FB0011124682B60611A
:100F800044E080E00C9457079A0140E1849FC0013F
:100F9000112448E0649FB0011124682B606244E092
:100FA00080E00C9457079B018F77682F606444E0C2
:100FB00080E00C9457079B01682F606844E080E054
:100FC0000C9457079B0144E0682F81E00C9457076D
:100FD000CF93DF93FC01EB0185EA9EE00197F1F7E7
:100FE00000C0000080818172808380818FEF8083C8
:100FF00088818172888388818660888388818E7FDA
:101000008883CB010E944C0780E094E00197F1F7C0
:1010100000C00000CE010E944C0791E29A95F1F7C2
:101020000000CE010E944C078DE08A95F1F7000088
:10103000888181728883888184608883CE010E9440
:101040004C079DE09A95F1F700009E0144E06CE2A8
:1010500080E00E9457079E0140E060E080E00E942F
:10106000A907CE010E949507AE0160E081E00E94D1
:10107000A1079E0140E060E081E0DF91CF910C94F8
:10108000A9079C0190E080E00196F901E80FF91FA3
:1010900040814111F9CF0895EF92FF920F931F9372
:1010A000CF93DF93EC01FB011F86309701F17C01A8
:1010B0008FE0E80EF11C2EE0042F10E0CF01B80104
:1010C0000E941D0BDC01AD59BE4F8C91D7018E9350
:1010D0007D012150CF01FB018017910710F02111F4
:1010E000EDCF822F90E001968C0F9D1F03C00E96CE
:1010F00020E32E87DF91CF911F910F91FF90EF900A
:1011000008959C0190E080E08217930741F0E9EF99
:10111000F0E03197F1F700C000000196F5CF089597
:10112000CDB7DEB72F970FB6F894DEBF0FBECDBF99
:1011300011B88FEF87B98AB90E94AF0381E00E948E
:10114000940380E00E9494030E945001CE010B960C
:101150000E94160235E0C32E80910001882309F415
:1011600067C01AB860E0CE010B960E941F029695E8
:101170008795969587958C9DC00111249C01990FA8
:10118000440B550B2C873D874E875F87CA01B901F9
:101190000E946D0A20E030E04FE753E46C877D87C2
:1011A0008E879F876C857D858E859F850E94CA0965
:1011B000B62ED72E7C016C877D878E87FF866C8547
:1011C0007D858E859F850E9461018C0120E030E045
:1011D000A901BC86DD86EE86FF866C857D858E85C1
:1011E0009F850E94C509811102C008E01DE3E090BF
:1011F0008400F090850043E060E071E080E00E94B0
:101200005F0160E0C8010E947B03F0928500E092DC
:1012100084003FEF49E658E1315040405040E1F74B
:1012200000C000000E9406068FEF0E94FD0594CFCB
:101230008091740190917501A0917601B091770130
:101240008C879D87AE87BF87BC01CD010E943C0A79
:101250007F936F9387E191E09F938F938E010F5F50
:101260001F4F1F930F930E94E50C6AE0C8010E9474
:101270000203CE010B960E941C020F900F900F905C
:101280000F900F900F9090E080E02F960FB6F8949B
:10129000DEBF0FBECDBF089545E250E064E270E0CE
:1012A00088E791E00C94170488E791E00C943504EA
:1012B0005058BB27AA270E9470090C94E30A0E9489
:1012C000D50A38F00E94DC0A20F039F49F3F19F467
:1012D00026F40C94D20A0EF4E095E7FB0C94CC0AA9
:1012E000E92F0E94F40A58F3BA17620773078407BC
:1012F000950720F079F4A6F50C94160B0EF4E09502
:101300000B2EBA2FA02D0B01B90190010C01CA01BF
:10131000A0011124FF27591B99F0593F50F4503E6A
:1013200068F11A16F040A22F232F342F4427585F5C
:10133000F3CF469537952795A795F0405395C9F774
:101340007EF41F16BA0B620B730B840BBAF091502C
:10135000A1F0FF0FBB1F661F771F881FC2F70EC0CB
:10136000BA0F621F731F841F48F48795779567959E
:10137000B795F7959E3F08F0B0CF9395880F08F08A
:101380009927EE0F9795879508950E94A80A08F46B
:1013900081E008950E94DE090C94E30A0E94DC0AB1
:1013A00058F00E94D50A40F029F45F3F29F00C94D0
:1013B000CC0A51110C94170B0C94D20A0E94F40A17
:1013C00068F39923B1F3552391F3951B550BBB2774
:1013D000AA2762177307840738F09F5F5F4F220FB9
:1013E000331F441FAA1FA9F335D00E2E3AF0E0E8B0
:1013F00032D091505040E695001CCAF72BD0FE2FFA
:1014000029D0660F771F881FBB1F2617370748078D
:10141000AB07B0E809F0BB0B802DBF01FF27935845
:101420005F4F3AF09E3F510578F00C94CC0A0C9433
:10143000170B5F3FE4F3983ED4F386957795679555
:10144000B795F7959F5FC9F7880F911D969587957A
:1014500097F90895E1E0660F771F881FBB1F621799
:1014600073078407BA0720F0621B730B840BBA0B57
:10147000EE1F88F7E09508950E94FC0A88F09F57B8
:1014800098F0B92F9927B751B0F0E1F0660F771FA8
:10149000881F991F1AF0BA95C9F714C0B13091F09E
:1014A0000E94160BB1E008950C94160B672F782F4D
:1014B0008827B85F39F0B93FCCF386957795679563
:1014C000B395D9F73EF490958095709561957F4FCF
:1014D0008F4F9F4F0895E89409C097FB3EF4909575
:1014E0008095709561957F4F8F4F9F4F9923A9F0FD
:1014F000F92F96E9BB279395F6958795779567958C
:10150000B795F111F8CFFAF4BB0F11F460FF1BC0CF
:101510006F5F7F4F8F4F9F4F16C0882311F096E962
:1015200011C0772321F09EE8872F762F05C0662310
:1015300071F096E8862F70E060E02AF09A95660FC9
:10154000771F881FDAF7880F9695879597F9089582
:10155000990F0008550FAA0BE0E8FEEF16161706C4
:10156000E807F907C0F012161306E407F50798F02C
:10157000621B730B840B950B39F40A2661F0232B45
:10158000242B252B21F408950A2609F4A140A695C1
:101590008FEF811D811D089597F99F6780E870E0A6
:1015A00060E008959FEF80EC089500240A941616D9
:1015B000170618060906089500240A941216130641
:1015C000140605060895092E0394000C11F48823CF
:1015D00052F0BB0F40F4BF2B11F460FF04C06F5FEB
:1015E0007F4F8F4F9F4F089557FD9058440F551FC1
:1015F00059F05F3F71F04795880F97FB991F61F095
:101600009F3F79F087950895121613061406551F0B
:10161000F2CF4695F1DF08C0161617061806991F77
:10162000F1CF86957105610508940895E894BB276C
:1016300066277727CB0197F90895AA1BBB1B51E1B9
:1016400007C0AA1FBB1FA617B70710F0A61BB70B32
:10165000881F991F5A95A9F780959095BC01CD01D7
:10166000089597FB072E16F4009407D077FD09D054
:101670000E941D0B07FC05D03EF4909581959F4F6D
:101680000895709561957F4F0895EE0FFF1F0590A7
:10169000F491E02D09940E94A80A08F48FEF0895B0
:1016A0000E94630B0C94E30A0E94D50A38F00E9452
:1016B000DC0A20F0952311F00C94CC0A0C94D20A89
:1016C00011240C94170B0E94F40A70F3959FC1F338
:1016D000950F50E0551F629FF001729FBB27F00DE0
:1016E000B11D639FAA27F00DB11DAA1F649F662735
:1016F000B00DA11D661F829F2227B00DA11D621F84
:10170000739FB00DA11D621F839FA00D611D221F3D
:10171000749F3327A00D611D231F849F600D211D21
:10172000822F762F6A2F11249F5750409AF0F1F0A4
:1017300088234AF0EE0FFF1FBB1F661F771F881F0D
:1017400091505040A9F79E3F510580F00C94CC0A6F
:101750000C94170B5F3FE4F3983ED4F3869577958E
:101760006795B795F795E7959F5FC1F7FE2B880FB3
:10177000911D9695879597F908950F931F93CF9391
:10178000DF939C01029710F422E030E0E0918401A5
:10179000F091850190E080E0B0E0A0E0309791F416
:1017A000009709F445C0821B930B84309105B8F56E
:1017B0008A819B816115710569F1FB0193838283A5
:1017C000FE0111C0408151810281138142175307EC
:1017D000F0F04217530799F4109761F012960C93AA
:1017E000129713961C933296CF01DF91CF911F91E0
:1017F0000F9108950093840110938501F4CF009711
:1018000019F04817590718F4CA01BD01EF01DF01AB
:10181000F801C4CF9093850180938401D1CFFE015C
:10182000E80FF91F21933193029799838883DCCFC6
:101830008091820190918301892B41F48091030171
:101840009091040190938301809382018091010122
:1018500090910201009741F48DB79EB74091050128
:1018600050910601841B950B409182015091830198
:101870004817590708F0B8CF841B950B82179307B8
:1018800008F4B2CFB9016E5F7F4F8617970708F44F
:10189000ABCF640F751F7093830160938201FA01CF
:1018A00021933193A1CFCF93DF939C010097E9F06F
:1018B000FC01329713821282C0918401D09185017C
:1018C000DE0190E080E02097A1F480819181280FD3
:1018D000391F80918201909183018217930709F04B
:1018E00067C0F0938301E0938201DF91CF91089567
:1018F000DA01AE17BF0708F041C012964D915C9116
:101900001397CD014115510599F7DC011396FC930E
:10191000EE9312974D915D91A40FB51FEA17FB0747
:1019200081F4208131812E5F3F4F240F351FDC0170
:1019300011963C932E932281338113963C932E93E0
:101940001297B0E0A0E08A819B810097B1F5FE017B
:1019500081919191E80FF91F80918201909183010B
:101960008E179F0711F6109759F510928501109266
:101970008401D0938301C0938201B7CFB383A28344
:1019800040815181240F351FA217B30771F44E5FB8
:101990005F4F2D913C911197420F531F518340830C
:1019A00012962D913C9133832283009709F0ADCF9D
:1019B000F0938501E093840198CFDE01EC01C3CF61
:1019C00013961C921E921297D4CFAEE0B0E0EBEECD
:1019D000FCE00C94A80F0D891E8986E08C831A8385
:1019E00009838FEF9FE79E838D83AE01475E5F4F34
:1019F0006F89788DCE0101960E94080D2F81388560
:101A0000020F131FF80110822E96E4E00C94C40F0D
:101A1000AFE0B0E0EEE0FDE00C949A0F7C013B01FA
:101A20008A01DC0117961C921E92169713968C91D0
:101A300081FFC3C19AE0292EFE0131964F01D701E3
:101A400013969C91F30193FD859193FF81913F0142
:101A5000882309F448C1853239F493FD859193FFB9
:101A600081913F01853229F4B70190E00E94F60E82
:101A7000E6CFB12C412C512CBFE1B51538F08B329B
:101A800009F188F4803201F1833221F157FC3AC028
:101A900020ED280F2A3040F556FE1FC0B29C200DC5
:101AA0001124B22E06C08D3291F0803379F76894FC
:101AB00050F8F30193FD859193FF81913F018111CE
:101AC000DBCF20C0689451F8689452F8F2CF689444
:101AD00053F8EFCF689454F8ECCF429C200D1124BA
:101AE000422E689455F8E5CF8E3229F456FCFBC09F
:101AF000689456F8DECF8C3619F4689457F8D9CF2D
:101B00008836B9F2982F9F7D95549330C0F0833674
:101B1000A1F18337C1F1833509F05BC0D801CD90C5
:101B2000DD908D016B2D70E056FC02C06FEF7FEFF2
:101B3000C6010E94E00E5C01689457F80AC00C5F71
:101B40001F4FEFE3E983AA24A394B12C6401E89426
:101B500057F853FC04C04A141B0409F018F5342C40
:101B6000A114B10431F5332009F469CFB70180E243
:101B700090E00E94F60E3A94F6CFD8018C918983BA
:101B80000E5F1F4FE0CFF801C190D1908F016B2DF8
:101B900070E056FC02C06FEF7FEFC6010E94EB0EB3
:101BA0005C01D5CFB70180E290E00E94F60E4A9426
:101BB000D2CFF60157FC859157FE81916F01B70195
:101BC00090E00E94F60E31103A94B1E0AB1AB108E1
:101BD000C7CF843619F0893609F074C0F80157FE72
:101BE0006AC061917191819191918F01E52DEF769C
:101BF000DE2E97FF09C090958095709561957F4F77
:101C00008F4F9F4F6894D7F82AE030E0A4010E94DC
:101C1000260FC82EC818AC2C5D2CD6FE0CC0E8943C
:101C200050F8CB1440F4D4FE05C0D2FC03C05D2DA7
:101C30005E7E552EAB2C54FE98C0FE01EC0DF11DBE
:101C40008081803309F08AC0652D697E562E752DFE
:101C50007870372E53FC98C050FE92C0BC2CA41450
:101C600018F44C0CB42CBA1854FE94C0B70180E39D
:101C700090E00E94F60E52FE09C088E790E051FE07
:101C800002C088E590E0B7010E94F60ECB1408F47C
:101C90008DC0CA94D12C8FEFC81AD80AC80CD91C91
:101CA000D6018E916D01B70190E00E94F60E8C1462
:101CB0009D04B1F758CF61917191072E000C880BEC
:101CC000990B93CFD52CE894D4F82AE030E08537EF
:101CD00039F1F52DF97FDF2E8037A9F058F48835DA
:101CE000A9F08F36D9F0F701868197812F96E2E12E
:101CF0000C94B60F8837B9F7D4FE02C06894D2F8B6
:101D000020E130E00DC06894D4F8F6CF54FE03C053
:101D10002F2F2660D22E20E132E002C028E030E0F2
:101D2000F801D7FE15C041915191619171914C8795
:101D30005D876E877F878F01A4016C857D858E8589
:101D40009F850E94260FC82EC818E894D7F863CF45
:101D500081919191AC0170E060E0E9CF52FC02C04A
:101D6000A39475CFA394A39472CF852D867809F49C
:101D70006ECFF6CFB70180E290E00E94F60EA394FA
:101D8000A414C0F3312C70CF342C3A18A41408F4E6
:101D90006BCFF8CF852D867809F478CF8BE251FE92
:101DA00080E257FC8DE2B70190E06ECFB70180E38F
:101DB00090E00E94F60EBA9469CF8FEF9FEF96CF16
:101DC000FC010590615070400110D8F78095909506
:101DD0008E0F9F1F0895FC0161507040019001100B
:101DE000D8F7809590958E0F9F1F08950F931F939E
:101DF000CF93DF93182F092FEB018B8181FD09C051
:101E00001FEF0FEF812F902FDF91CF911F910F9137
:101E1000089582FF14C02E813F818C819D812817F7
:101E200039073CF4E881F981CF01019699838883D1
:101E300010838E819F8101969F838E83E3CFE885F7
:101E4000F985812F0995892BA1F3DACFFA01AA2709
:101E5000283051F1203181F1E8946F936E7F6E5FED
:101E60007F4F8F4F9F4FAF4FB1E03ED0B4E03CD09B
:101E7000670F781F891F9A1FA11D680F791F8A1F7E
:101E8000911DA11D6A0F711D811D911DA11D20D0E5
:101E900009F468943F912AE0269F11243019305D9F
:101EA0003193DEF6CF010895462F4770405D419390
:101EB000B3E00FD0C9F7F6CF462F4F70405D4A33DD
:101EC00018F0495D31FD4052419302D0A9F7EACFA5
:101ED000B4E0A6959795879577956795BA95C9F7D4
:101EE00000976105710508959B01AC010A2E0694C7
:101EF0005795479537952795BA95C9F7620F731F80
:101F0000841F951FA01D0895F999FECF92BD81BD34
:101F1000F89A992780B50895262FF999FECF1FBA10
:101F200092BD81BD20BD0FB6F894FA9AF99A0FBE02
:101F3000019608952F923F924F925F926F927F92F7
:101F40008F929F92AF92BF92CF92DF92EF92FF92C9
:101F50000F931F93CF93DF93CDB7DEB7CA1BDB0B75
:101F60000FB6F894DEBF0FBECDBF09942A8839881A
:101F700048885F846E847D848C849B84AA84B98421
:101F8000C884DF80EE80FD800C811B81AA81B9812D
:101F9000CE0FD11D0FB6F894DEBF0FBECDBFED0141
:101FA000089510E0CFE3D0E004C0FE010E94450B8D
:0C1FB0002196C034D107C9F7F894FFCF88
:101FBC000100008601200000010203040506070849
:101FCC0009414243444546256400456E7472657A66
:101FDC00206C276865757265206574206C657320AC
:101FEC006D696E75746573206465206465706172CB
:101FFC0074206465206C612073696D756C61746903
:10200C006F6E2E2048484D4D0A002575002569003D
:10201C0025630030313233343536373839616263F9
:04202C006465660081
:00000001FF
